{
  "contractName": "DecentralizedStore",
  "abi": [
    {
      "constant": false,
      "inputs": [],
      "name": "unpause",
      "outputs": [],
      "payable": false,
      "stateMutability": "nonpayable",
      "type": "function"
    },
    {
      "constant": true,
      "inputs": [
        {
          "name": "account",
          "type": "address"
        }
      ],
      "name": "isPauser",
      "outputs": [
        {
          "name": "",
          "type": "bool"
        }
      ],
      "payable": false,
      "stateMutability": "view",
      "type": "function"
    },
    {
      "constant": true,
      "inputs": [],
      "name": "paused",
      "outputs": [
        {
          "name": "",
          "type": "bool"
        }
      ],
      "payable": false,
      "stateMutability": "view",
      "type": "function"
    },
    {
      "constant": false,
      "inputs": [],
      "name": "renouncePauser",
      "outputs": [],
      "payable": false,
      "stateMutability": "nonpayable",
      "type": "function"
    },
    {
      "constant": false,
      "inputs": [],
      "name": "renounceOwnership",
      "outputs": [],
      "payable": false,
      "stateMutability": "nonpayable",
      "type": "function"
    },
    {
      "constant": false,
      "inputs": [
        {
          "name": "account",
          "type": "address"
        }
      ],
      "name": "addPauser",
      "outputs": [],
      "payable": false,
      "stateMutability": "nonpayable",
      "type": "function"
    },
    {
      "constant": false,
      "inputs": [],
      "name": "pause",
      "outputs": [],
      "payable": false,
      "stateMutability": "nonpayable",
      "type": "function"
    },
    {
      "constant": true,
      "inputs": [],
      "name": "owner",
      "outputs": [
        {
          "name": "",
          "type": "address"
        }
      ],
      "payable": false,
      "stateMutability": "view",
      "type": "function"
    },
    {
      "constant": true,
      "inputs": [],
      "name": "isOwner",
      "outputs": [
        {
          "name": "",
          "type": "bool"
        }
      ],
      "payable": false,
      "stateMutability": "view",
      "type": "function"
    },
    {
      "constant": false,
      "inputs": [
        {
          "name": "newOwner",
          "type": "address"
        }
      ],
      "name": "transferOwnership",
      "outputs": [],
      "payable": false,
      "stateMutability": "nonpayable",
      "type": "function"
    },
    {
      "inputs": [],
      "payable": false,
      "stateMutability": "nonpayable",
      "type": "constructor"
    },
    {
      "anonymous": false,
      "inputs": [
        {
          "indexed": false,
          "name": "ownerAdress",
          "type": "address"
        }
      ],
      "name": "LogOwnerApproved",
      "type": "event"
    },
    {
      "anonymous": false,
      "inputs": [
        {
          "indexed": false,
          "name": "ownerAdress",
          "type": "address"
        }
      ],
      "name": "LogOwnerRemoved",
      "type": "event"
    },
    {
      "anonymous": false,
      "inputs": [
        {
          "indexed": false,
          "name": "ownerAdress",
          "type": "address"
        }
      ],
      "name": "LogOwnerAdded",
      "type": "event"
    },
    {
      "anonymous": false,
      "inputs": [
        {
          "indexed": false,
          "name": "administratorAddress",
          "type": "address"
        }
      ],
      "name": "LogAdminAdded",
      "type": "event"
    },
    {
      "anonymous": false,
      "inputs": [
        {
          "indexed": false,
          "name": "administratorAddress",
          "type": "address"
        }
      ],
      "name": "LogAdminRemoved",
      "type": "event"
    },
    {
      "anonymous": false,
      "inputs": [
        {
          "indexed": false,
          "name": "account",
          "type": "address"
        }
      ],
      "name": "Paused",
      "type": "event"
    },
    {
      "anonymous": false,
      "inputs": [
        {
          "indexed": false,
          "name": "account",
          "type": "address"
        }
      ],
      "name": "Unpaused",
      "type": "event"
    },
    {
      "anonymous": false,
      "inputs": [
        {
          "indexed": true,
          "name": "account",
          "type": "address"
        }
      ],
      "name": "PauserAdded",
      "type": "event"
    },
    {
      "anonymous": false,
      "inputs": [
        {
          "indexed": true,
          "name": "account",
          "type": "address"
        }
      ],
      "name": "PauserRemoved",
      "type": "event"
    },
    {
      "anonymous": false,
      "inputs": [
        {
          "indexed": true,
          "name": "previousOwner",
          "type": "address"
        },
        {
          "indexed": true,
          "name": "newOwner",
          "type": "address"
        }
      ],
      "name": "OwnershipTransferred",
      "type": "event"
    },
    {
      "constant": false,
      "inputs": [
        {
          "name": "administratorAddress",
          "type": "address"
        }
      ],
      "name": "createNewAdministrator",
      "outputs": [],
      "payable": false,
      "stateMutability": "nonpayable",
      "type": "function"
    },
    {
      "constant": false,
      "inputs": [
        {
          "name": "administratorAddress",
          "type": "address"
        }
      ],
      "name": "deleteAdministrator",
      "outputs": [],
      "payable": false,
      "stateMutability": "nonpayable",
      "type": "function"
    },
    {
      "constant": true,
      "inputs": [
        {
          "name": "administratorAddress",
          "type": "address"
        }
      ],
      "name": "isAdministrator",
      "outputs": [
        {
          "name": "",
          "type": "bool"
        }
      ],
      "payable": false,
      "stateMutability": "view",
      "type": "function"
    },
    {
      "constant": false,
      "inputs": [
        {
          "name": "ownerAdress",
          "type": "address"
        }
      ],
      "name": "addOwner",
      "outputs": [],
      "payable": false,
      "stateMutability": "nonpayable",
      "type": "function"
    },
    {
      "constant": true,
      "inputs": [],
      "name": "getOwnersNumber",
      "outputs": [
        {
          "name": "",
          "type": "uint256"
        }
      ],
      "payable": false,
      "stateMutability": "view",
      "type": "function"
    },
    {
      "constant": true,
      "inputs": [
        {
          "name": "ownerAdress",
          "type": "address"
        }
      ],
      "name": "isOwnerApproved",
      "outputs": [
        {
          "name": "",
          "type": "bool"
        }
      ],
      "payable": false,
      "stateMutability": "view",
      "type": "function"
    },
    {
      "constant": false,
      "inputs": [],
      "name": "createOwner",
      "outputs": [
        {
          "name": "",
          "type": "bool"
        }
      ],
      "payable": false,
      "stateMutability": "nonpayable",
      "type": "function"
    }
  ],
  "bytecode": "0x60806040523480156200001157600080fd5b50336000806101000a81548173ffffffffffffffffffffffffffffffffffffffff021916908373ffffffffffffffffffffffffffffffffffffffff1602179055506000809054906101000a900473ffffffffffffffffffffffffffffffffffffffff1673ffffffffffffffffffffffffffffffffffffffff16600073ffffffffffffffffffffffffffffffffffffffff167f8be0079c531659141344cd1fd0a4f28419497f9722a3daafe3b4186f6b6457e060405160405180910390a3620000df336200015860201b60201c565b6000600260006101000a81548160ff0219169083151502179055506001600760003373ffffffffffffffffffffffffffffffffffffffff1673ffffffffffffffffffffffffffffffffffffffff16815260200190815260200160002060006101000a81548160ff0219169083151502179055506200037d565b62000173816001620001b960201b62001a5f1790919060201c565b8073ffffffffffffffffffffffffffffffffffffffff167f6719d08c1888103bea251a4ed56406bd0c3e69723c8a1686e017e7bbe159b6f860405160405180910390a250565b620001cb82826200029d60201b60201c565b156200023f576040517f08c379a000000000000000000000000000000000000000000000000000000000815260040180806020018281038252601f8152602001807f526f6c65733a206163636f756e7420616c72656164792068617320726f6c650081525060200191505060405180910390fd5b60018260000160008373ffffffffffffffffffffffffffffffffffffffff1673ffffffffffffffffffffffffffffffffffffffff16815260200190815260200160002060006101000a81548160ff0219169083151502179055505050565b60008073ffffffffffffffffffffffffffffffffffffffff168273ffffffffffffffffffffffffffffffffffffffff16141562000326576040517f08c379a000000000000000000000000000000000000000000000000000000000815260040180806020018281038252602281526020018062001fe66022913960400191505060405180910390fd5b8260000160008373ffffffffffffffffffffffffffffffffffffffff1673ffffffffffffffffffffffffffffffffffffffff16815260200190815260200160002060009054906101000a900460ff16905092915050565b611c59806200038d6000396000f3fe608060405234801561001057600080fd5b506004361061010b5760003560e01c8063715018a6116100a25780638da5cb5b116100715780638da5cb5b1461031e5780638f32d59b14610368578063bd34639f1461038a578063dc7154cb146103e6578063f2fde38b1461042a5761010b565b8063715018a6146102a857806382dc1ec4146102b25780638456cb59146102f65780638638fb5a146103005761010b565b8063529906eb116100de578063529906eb146102165780635c975abb146102385780636ef8d66d1461025a5780637065cb48146102645761010b565b80630a13c65c146101105780630a2eb301146101545780633f4ba83a146101b057806346fbf68e146101ba575b600080fd5b6101526004803603602081101561012657600080fd5b81019080803573ffffffffffffffffffffffffffffffffffffffff16906020019092919050505061046e565b005b6101966004803603602081101561016a57600080fd5b81019080803573ffffffffffffffffffffffffffffffffffffffff169060200190929190505050610675565b604051808215151515815260200191505060405180910390f35b6101b86106cb565b005b6101fc600480360360208110156101d057600080fd5b81019080803573ffffffffffffffffffffffffffffffffffffffff16906020019092919050505061082b565b604051808215151515815260200191505060405180910390f35b61021e610848565b604051808215151515815260200191505060405180910390f35b610240610aaf565b604051808215151515815260200191505060405180910390f35b610262610ac6565b005b6102a66004803603602081101561027a57600080fd5b81019080803573ffffffffffffffffffffffffffffffffffffffff169060200190929190505050610ad1565b005b6102b0610d93565b005b6102f4600480360360208110156102c857600080fd5b81019080803573ffffffffffffffffffffffffffffffffffffffff169060200190929190505050610ecc565b005b6102fe610f36565b005b610308611097565b6040518082815260200191505060405180910390f35b6103266110a4565b604051808273ffffffffffffffffffffffffffffffffffffffff1673ffffffffffffffffffffffffffffffffffffffff16815260200191505060405180910390f35b6103706110cd565b604051808215151515815260200191505060405180910390f35b6103cc600480360360208110156103a057600080fd5b81019080803573ffffffffffffffffffffffffffffffffffffffff169060200190929190505050611124565b604051808215151515815260200191505060405180910390f35b610428600480360360208110156103fc57600080fd5b81019080803573ffffffffffffffffffffffffffffffffffffffff16906020019092919050505061117a565b005b61046c6004803603602081101561044057600080fd5b81019080803573ffffffffffffffffffffffffffffffffffffffff1690602001909291905050506113fb565b005b60011515600760003373ffffffffffffffffffffffffffffffffffffffff1673ffffffffffffffffffffffffffffffffffffffff16815260200190815260200160002060009054906101000a900460ff16151514610534576040517f08c379a00000000000000000000000000000000000000000000000000000000081526004018080602001828103825260058152602001807f4572726f7200000000000000000000000000000000000000000000000000000081525060200191505060405180910390fd5b600260009054906101000a900460ff16156105b7576040517f08c379a00000000000000000000000000000000000000000000000000000000081526004018080602001828103825260108152602001807f5061757361626c653a207061757365640000000000000000000000000000000081525060200191505060405180910390fd5b6001600760008373ffffffffffffffffffffffffffffffffffffffff1673ffffffffffffffffffffffffffffffffffffffff16815260200190815260200160002060006101000a81548160ff0219169083151502179055507f873b6546df550db4e197c19f621af58777f109107ed897212d3ab52d5a9f2ede81604051808273ffffffffffffffffffffffffffffffffffffffff1673ffffffffffffffffffffffffffffffffffffffff16815260200191505060405180910390a150565b6000600760008373ffffffffffffffffffffffffffffffffffffffff1673ffffffffffffffffffffffffffffffffffffffff16815260200190815260200160002060009054906101000a900460ff169050919050565b6106d43361082b565b610729576040517f08c379a0000000000000000000000000000000000000000000000000000000008152600401808060200182810382526030815260200180611b8c6030913960400191505060405180910390fd5b600260009054906101000a900460ff166107ab576040517f08c379a00000000000000000000000000000000000000000000000000000000081526004018080602001828103825260148152602001807f5061757361626c653a206e6f742070617573656400000000000000000000000081525060200191505060405180910390fd5b6000600260006101000a81548160ff0219169083151502179055507f5db9ee0a495bf2e6ff9c91a7834c1ba4fdd244a5e8aa4e537bd38aeae4b073aa33604051808273ffffffffffffffffffffffffffffffffffffffff1673ffffffffffffffffffffffffffffffffffffffff16815260200191505060405180910390a1565b600061084182600161148190919063ffffffff16565b9050919050565b6000600260009054906101000a900460ff16156108cd576040517f08c379a00000000000000000000000000000000000000000000000000000000081526004018080602001828103825260108152602001807f5061757361626c653a207061757365640000000000000000000000000000000081525060200191505060405180910390fd5b60001515600860003373ffffffffffffffffffffffffffffffffffffffff1673ffffffffffffffffffffffffffffffffffffffff16815260200190815260200160002060009054906101000a900460ff16151514610993576040517f08c379a00000000000000000000000000000000000000000000000000000000081526004018080602001828103825260058152602001807f4572726f7200000000000000000000000000000000000000000000000000000081525060200191505060405180910390fd5b60033390806001815401808255809150509060018203906000526020600020016000909192909190916101000a81548173ffffffffffffffffffffffffffffffffffffffff021916908373ffffffffffffffffffffffffffffffffffffffff16021790555050600160038054905003600660003373ffffffffffffffffffffffffffffffffffffffff1673ffffffffffffffffffffffffffffffffffffffff168152602001908152602001600020819055507f5345c41500b4b3b852712efe48a8aca66a07e68dafe472cdf152bb1f8cf0dee733604051808273ffffffffffffffffffffffffffffffffffffffff1673ffffffffffffffffffffffffffffffffffffffff16815260200191505060405180910390a16001905090565b6000600260009054906101000a900460ff16905090565b610acf3361155f565b565b60011515600760003373ffffffffffffffffffffffffffffffffffffffff1673ffffffffffffffffffffffffffffffffffffffff16815260200190815260200160002060009054906101000a900460ff16151514610b97576040517f08c379a00000000000000000000000000000000000000000000000000000000081526004018080602001828103825260058152602001807f4572726f7200000000000000000000000000000000000000000000000000000081525060200191505060405180910390fd5b600260009054906101000a900460ff1615610c1a576040517f08c379a00000000000000000000000000000000000000000000000000000000081526004018080602001828103825260108152602001807f5061757361626c653a207061757365640000000000000000000000000000000081525060200191505060405180910390fd5b6001600860008373ffffffffffffffffffffffffffffffffffffffff1673ffffffffffffffffffffffffffffffffffffffff16815260200190815260200160002060006101000a81548160ff021916908315150217905550610c7b816115b9565b60048190806001815401808255809150509060018203906000526020600020016000909192909190916101000a81548173ffffffffffffffffffffffffffffffffffffffff021916908373ffffffffffffffffffffffffffffffffffffffff16021790555050600160048054905003600560008373ffffffffffffffffffffffffffffffffffffffff1673ffffffffffffffffffffffffffffffffffffffff168152602001908152602001600020819055507fd66548002356063aa41aecceeaa490bb0ec32f1eed05124605ead96dfca41e0e81604051808273ffffffffffffffffffffffffffffffffffffffff1673ffffffffffffffffffffffffffffffffffffffff16815260200191505060405180910390a150565b610d9b6110cd565b610e0d576040517f08c379a00000000000000000000000000000000000000000000000000000000081526004018080602001828103825260208152602001807f4f776e61626c653a2063616c6c6572206973206e6f7420746865206f776e657281525060200191505060405180910390fd5b600073ffffffffffffffffffffffffffffffffffffffff166000809054906101000a900473ffffffffffffffffffffffffffffffffffffffff1673ffffffffffffffffffffffffffffffffffffffff167f8be0079c531659141344cd1fd0a4f28419497f9722a3daafe3b4186f6b6457e060405160405180910390a360008060006101000a81548173ffffffffffffffffffffffffffffffffffffffff021916908373ffffffffffffffffffffffffffffffffffffffff160217905550565b610ed53361082b565b610f2a576040517f08c379a0000000000000000000000000000000000000000000000000000000008152600401808060200182810382526030815260200180611b8c6030913960400191505060405180910390fd5b610f3381611804565b50565b610f3f3361082b565b610f94576040517f08c379a0000000000000000000000000000000000000000000000000000000008152600401808060200182810382526030815260200180611b8c6030913960400191505060405180910390fd5b600260009054906101000a900460ff1615611017576040517f08c379a00000000000000000000000000000000000000000000000000000000081526004018080602001828103825260108152602001807f5061757361626c653a207061757365640000000000000000000000000000000081525060200191505060405180910390fd5b6001600260006101000a81548160ff0219169083151502179055507f62e78cea01bee320cd4e420270b5ea74000d11b0c9f74754ebdbfc544b05a25833604051808273ffffffffffffffffffffffffffffffffffffffff1673ffffffffffffffffffffffffffffffffffffffff16815260200191505060405180910390a1565b6000600380549050905090565b60008060009054906101000a900473ffffffffffffffffffffffffffffffffffffffff16905090565b60008060009054906101000a900473ffffffffffffffffffffffffffffffffffffffff1673ffffffffffffffffffffffffffffffffffffffff163373ffffffffffffffffffffffffffffffffffffffff1614905090565b6000600860008373ffffffffffffffffffffffffffffffffffffffff1673ffffffffffffffffffffffffffffffffffffffff16815260200190815260200160002060009054906101000a900460ff169050919050565b6111826110cd565b6111f4576040517f08c379a00000000000000000000000000000000000000000000000000000000081526004018080602001828103825260208152602001807f4f776e61626c653a2063616c6c6572206973206e6f7420746865206f776e657281525060200191505060405180910390fd5b600260009054906101000a900460ff1615611277576040517f08c379a00000000000000000000000000000000000000000000000000000000081526004018080602001828103825260108152602001807f5061757361626c653a207061757365640000000000000000000000000000000081525060200191505060405180910390fd5b60011515600760008373ffffffffffffffffffffffffffffffffffffffff1673ffffffffffffffffffffffffffffffffffffffff16815260200190815260200160002060009054906101000a900460ff1615151461133d576040517f08c379a00000000000000000000000000000000000000000000000000000000081526004018080602001828103825260058152602001807f4572726f7200000000000000000000000000000000000000000000000000000081525060200191505060405180910390fd5b6000600760008373ffffffffffffffffffffffffffffffffffffffff1673ffffffffffffffffffffffffffffffffffffffff16815260200190815260200160002060006101000a81548160ff0219169083151502179055507ff8fcbbc219e48667a19933651e37be65424d04b186ced0baaa6055803c6a6ba381604051808273ffffffffffffffffffffffffffffffffffffffff1673ffffffffffffffffffffffffffffffffffffffff16815260200191505060405180910390a150565b6114036110cd565b611475576040517f08c379a00000000000000000000000000000000000000000000000000000000081526004018080602001828103825260208152602001807f4f776e61626c653a2063616c6c6572206973206e6f7420746865206f776e657281525060200191505060405180910390fd5b61147e8161185e565b50565b60008073ffffffffffffffffffffffffffffffffffffffff168273ffffffffffffffffffffffffffffffffffffffff161415611508576040517f08c379a0000000000000000000000000000000000000000000000000000000008152600401808060200182810382526022815260200180611c036022913960400191505060405180910390fd5b8260000160008373ffffffffffffffffffffffffffffffffffffffff1673ffffffffffffffffffffffffffffffffffffffff16815260200190815260200160002060009054906101000a900460ff16905092915050565b6115738160016119a290919063ffffffff16565b8073ffffffffffffffffffffffffffffffffffffffff167fcd265ebaf09df2871cc7bd4133404a235ba12eff2041bb89d9c714a2621c7c7e60405160405180910390a250565b60011515600760003373ffffffffffffffffffffffffffffffffffffffff1673ffffffffffffffffffffffffffffffffffffffff16815260200190815260200160002060009054906101000a900460ff1615151461167f576040517f08c379a00000000000000000000000000000000000000000000000000000000081526004018080602001828103825260058152602001807f4572726f7200000000000000000000000000000000000000000000000000000081525060200191505060405180910390fd5b600260009054906101000a900460ff1615611702576040517f08c379a00000000000000000000000000000000000000000000000000000000081526004018080602001828103825260108152602001807f5061757361626c653a207061757365640000000000000000000000000000000081525060200191505060405180910390fd5b6000600660008373ffffffffffffffffffffffffffffffffffffffff1673ffffffffffffffffffffffffffffffffffffffff168152602001908152602001600020549050600160038054905011156117ea5760036001600380549050038154811061176957fe5b9060005260206000200160009054906101000a900473ffffffffffffffffffffffffffffffffffffffff16600382815481106117a157fe5b9060005260206000200160006101000a81548173ffffffffffffffffffffffffffffffffffffffff021916908373ffffffffffffffffffffffffffffffffffffffff1602179055505b60038054809190600190036117ff9190611b3a565b505050565b611818816001611a5f90919063ffffffff16565b8073ffffffffffffffffffffffffffffffffffffffff167f6719d08c1888103bea251a4ed56406bd0c3e69723c8a1686e017e7bbe159b6f860405160405180910390a250565b600073ffffffffffffffffffffffffffffffffffffffff168173ffffffffffffffffffffffffffffffffffffffff1614156118e4576040517f08c379a0000000000000000000000000000000000000000000000000000000008152600401808060200182810382526026815260200180611bbc6026913960400191505060405180910390fd5b8073ffffffffffffffffffffffffffffffffffffffff166000809054906101000a900473ffffffffffffffffffffffffffffffffffffffff1673ffffffffffffffffffffffffffffffffffffffff167f8be0079c531659141344cd1fd0a4f28419497f9722a3daafe3b4186f6b6457e060405160405180910390a3806000806101000a81548173ffffffffffffffffffffffffffffffffffffffff021916908373ffffffffffffffffffffffffffffffffffffffff16021790555050565b6119ac8282611481565b611a01576040517f08c379a0000000000000000000000000000000000000000000000000000000008152600401808060200182810382526021815260200180611be26021913960400191505060405180910390fd5b60008260000160008373ffffffffffffffffffffffffffffffffffffffff1673ffffffffffffffffffffffffffffffffffffffff16815260200190815260200160002060006101000a81548160ff0219169083151502179055505050565b611a698282611481565b15611adc576040517f08c379a000000000000000000000000000000000000000000000000000000000815260040180806020018281038252601f8152602001807f526f6c65733a206163636f756e7420616c72656164792068617320726f6c650081525060200191505060405180910390fd5b60018260000160008373ffffffffffffffffffffffffffffffffffffffff1673ffffffffffffffffffffffffffffffffffffffff16815260200190815260200160002060006101000a81548160ff0219169083151502179055505050565b815481835581811115611b6157818360005260206000209182019101611b609190611b66565b5b505050565b611b8891905b80821115611b84576000816000905550600101611b6c565b5090565b9056fe506175736572526f6c653a2063616c6c657220646f6573206e6f742068617665207468652050617573657220726f6c654f776e61626c653a206e6577206f776e657220697320746865207a65726f2061646472657373526f6c65733a206163636f756e7420646f6573206e6f74206861766520726f6c65526f6c65733a206163636f756e7420697320746865207a65726f2061646472657373a265627a7a72305820da4367bf425ba6e947f950f01ad37e81ea0aecb56339a38ae0773906c25d858564736f6c634300050a0032526f6c65733a206163636f756e7420697320746865207a65726f2061646472657373",
  "source": "pragma solidity ^0.5.10;\n\nimport '../node_modules/openzeppelin-solidity/contracts/ownership/Ownable.sol';\nimport '../node_modules/openzeppelin-solidity/contracts/lifecycle/Pausable.sol';\n\n/*\n* @title DecentralizedStore\n*\n* @dev @notice contract for role administration\n*\n*/\ncontract DecentralizedStore is Ownable, Pausable{\n\n\n    address[] private pendingOwner;\n    address[] private approvedOwner;\n    mapping(address => uint) private approvedOwnerId;\n    mapping(address => uint) private pendingOwnerid;\n    mapping(address => bool) private administrators;\n    mapping(address => bool) private approvedOwnersMap;\n    event LogOwnerApproved(address ownerAdress);\n    event LogOwnerRemoved(address ownerAdress);\n    event LogOwnerAdded(address ownerAdress);\n    event LogAdminAdded(address administratorAddress);\n    event LogAdminRemoved(address administratorAddress);\n\n    // Modifier for administrative features\n    modifier onlyAdmin(){\n        require(administrators[msg.sender] == true,\"Error\");\n        _;\n    }\n\n    /**\n    * @dev @notice deployer role update (constructor)\n\t*/\n    constructor() public{\n        administrators[msg.sender] = true;\n    }\n\n   /**\n    * @dev @notice Create a new admin\n\t* @param administratorAddress address\n\t*/\n    function createNewAdministrator(address administratorAddress) public onlyAdmin whenNotPaused{\n        administrators[administratorAddress] = true;\n        emit LogAdminAdded(administratorAddress);\n    }\n\n    /**\n    * @dev @notice delete admin (revoke privilege)\n\t* @param administratorAddress adress\n\t*/\n    function deleteAdministrator(address administratorAddress) public onlyOwner whenNotPaused{\n        require(administrators[administratorAddress] == true,\"Error\");\n        administrators[administratorAddress] = false;\n        emit LogAdminRemoved(administratorAddress);\n    }\n\n    /**\n    * @dev @notice is an administator of the dapp?\n\t* @param administratorAddress adress\n    * @return true if true\n\t*/\n    function isAdministrator(address administratorAddress) public view returns(bool){\n        return administrators[administratorAddress];\n    }\n\n    /**\n    * @dev @notice create new owner of a store\n    * @param ownerAdress address\n\t*/\n    function addOwner(address ownerAdress) public onlyAdmin whenNotPaused{\n        approvedOwnersMap[ownerAdress] = true;\n        removeOwnerRequest(ownerAdress);\n        approvedOwner.push(ownerAdress);\n        approvedOwnerId[ownerAdress] = approvedOwner.length-1;\n        emit LogOwnerApproved(ownerAdress);\n    }\n\n    /**\n    * @dev @notice how many owners\n    * @return number\n\t*/\n    function getOwnersNumber() public view returns(uint){\n        return pendingOwner.length;\n    }\n\n    /**\n    * @dev @notice is the owner aproved?\n    * @param ownerAdress address\n    * @return true if true\n\t*/\n    function isOwnerApproved(address ownerAdress) public view returns(bool){\n        return approvedOwnersMap[ownerAdress];\n    }\n\n    /**\n    * @dev @notice Function is to add store owner\n    * @return true on success\n\t*/\n    function createOwner() public whenNotPaused returns(bool){\n        require(approvedOwnersMap[msg.sender] == false,\"Error\");\n        pendingOwner.push(msg.sender);\n        pendingOwnerid[msg.sender] = pendingOwner.length-1;\n        emit LogOwnerAdded(msg.sender);\n        return true;\n    }\n\n    /**\n    * @dev @notice remove pending request from map\n    * @param ownerAdress address\n\t*/\n    function removeOwnerRequest(address ownerAdress) private onlyAdmin whenNotPaused {\n        uint i = pendingOwnerid[ownerAdress];\n        if (pendingOwner.length > 1) {\n            pendingOwner[i] = pendingOwner[pendingOwner.length-1];\n        }\n        pendingOwner.length--;\n    }\n}",
  "sourcePath": "/home/jack/Desktop/dstore/contracts/DecentralizedStore.sol",
  "compiler": {
    "name": "solc",
    "version": "0.5.10+commit.5a6ea5b1.Emscripten.clang"
  },
  "schemaVersion": "3.0.11",
  "updatedAt": "2019-07-31T14:52:32.852Z",
  "devdoc": {
    "methods": {
      "addOwner(address)": {
        "details": "@notice create new owner of a store",
        "params": {
          "ownerAdress": "address"
        }
      },
      "constructor": {
        "details": "@notice deployer role update (constructor)"
      },
      "createNewAdministrator(address)": {
        "details": "@notice Create a new admin",
        "params": {
          "administratorAddress": "address"
        }
      },
      "createOwner()": {
        "details": "@notice Function is to add store owner",
        "return": "true on success"
      },
      "deleteAdministrator(address)": {
        "details": "@notice delete admin (revoke privilege)",
        "params": {
          "administratorAddress": "adress"
        }
      },
      "getOwnersNumber()": {
        "details": "@notice how many owners",
        "return": "number"
      },
      "isAdministrator(address)": {
        "details": "@notice is an administator of the dapp?",
        "params": {
          "administratorAddress": "adress"
        },
        "return": "true if true"
      },
      "isOwner()": {
        "details": "Returns true if the caller is the current owner."
      },
      "isOwnerApproved(address)": {
        "details": "@notice is the owner aproved?",
        "params": {
          "ownerAdress": "address"
        },
        "return": "true if true"
      },
      "owner()": {
        "details": "Returns the address of the current owner."
      },
      "pause()": {
        "details": "Called by a pauser to pause, triggers stopped state."
      },
      "paused()": {
        "details": "Returns true if the contract is paused, and false otherwise."
      },
      "renounceOwnership()": {
        "details": "Leaves the contract without owner. It will not be possible to call `onlyOwner` functions anymore. Can only be called by the current owner.     * > Note: Renouncing ownership will leave the contract without an owner, thereby removing any functionality that is only available to the owner."
      },
      "transferOwnership(address)": {
        "details": "Transfers ownership of the contract to a new account (`newOwner`). Can only be called by the current owner."
      },
      "unpause()": {
        "details": "Called by a pauser to unpause, returns to normal state."
      }
    }
  },
  "userdoc": {
    "methods": {}
  }
}