{
  "contractName": "Marketplace",
  "abi": [
    {
      "constant": false,
      "inputs": [],
      "name": "unpause",
      "outputs": [],
      "payable": false,
      "stateMutability": "nonpayable",
      "type": "function"
    },
    {
      "constant": true,
      "inputs": [
        {
          "name": "account",
          "type": "address"
        }
      ],
      "name": "isPauser",
      "outputs": [
        {
          "name": "",
          "type": "bool"
        }
      ],
      "payable": false,
      "stateMutability": "view",
      "type": "function"
    },
    {
      "constant": true,
      "inputs": [],
      "name": "paused",
      "outputs": [
        {
          "name": "",
          "type": "bool"
        }
      ],
      "payable": false,
      "stateMutability": "view",
      "type": "function"
    },
    {
      "constant": false,
      "inputs": [],
      "name": "renouncePauser",
      "outputs": [],
      "payable": false,
      "stateMutability": "nonpayable",
      "type": "function"
    },
    {
      "constant": false,
      "inputs": [],
      "name": "renounceOwnership",
      "outputs": [],
      "payable": false,
      "stateMutability": "nonpayable",
      "type": "function"
    },
    {
      "constant": true,
      "inputs": [],
      "name": "decentralizedStoreInstance",
      "outputs": [
        {
          "name": "",
          "type": "address"
        }
      ],
      "payable": false,
      "stateMutability": "view",
      "type": "function"
    },
    {
      "constant": false,
      "inputs": [
        {
          "name": "account",
          "type": "address"
        }
      ],
      "name": "addPauser",
      "outputs": [],
      "payable": false,
      "stateMutability": "nonpayable",
      "type": "function"
    },
    {
      "constant": false,
      "inputs": [],
      "name": "pause",
      "outputs": [],
      "payable": false,
      "stateMutability": "nonpayable",
      "type": "function"
    },
    {
      "constant": true,
      "inputs": [],
      "name": "owner",
      "outputs": [
        {
          "name": "",
          "type": "address"
        }
      ],
      "payable": false,
      "stateMutability": "view",
      "type": "function"
    },
    {
      "constant": true,
      "inputs": [],
      "name": "isOwner",
      "outputs": [
        {
          "name": "",
          "type": "bool"
        }
      ],
      "payable": false,
      "stateMutability": "view",
      "type": "function"
    },
    {
      "constant": false,
      "inputs": [
        {
          "name": "newOwner",
          "type": "address"
        }
      ],
      "name": "transferOwnership",
      "outputs": [],
      "payable": false,
      "stateMutability": "nonpayable",
      "type": "function"
    },
    {
      "inputs": [
        {
          "name": "DecentralizedStoreAddress",
          "type": "address"
        }
      ],
      "payable": false,
      "stateMutability": "nonpayable",
      "type": "constructor"
    },
    {
      "anonymous": false,
      "inputs": [
        {
          "indexed": false,
          "name": "idMarketplace",
          "type": "bytes32"
        }
      ],
      "name": "LogNewMarket",
      "type": "event"
    },
    {
      "anonymous": false,
      "inputs": [
        {
          "indexed": false,
          "name": "idMarketplace",
          "type": "bytes32"
        }
      ],
      "name": "LogdeleteMarket",
      "type": "event"
    },
    {
      "anonymous": false,
      "inputs": [
        {
          "indexed": false,
          "name": "productId",
          "type": "bytes32"
        }
      ],
      "name": "LogProductAdded",
      "type": "event"
    },
    {
      "anonymous": false,
      "inputs": [
        {
          "indexed": false,
          "name": "productId",
          "type": "bytes32"
        },
        {
          "indexed": false,
          "name": "storefrontId",
          "type": "bytes32"
        }
      ],
      "name": "LogProductRemoved",
      "type": "event"
    },
    {
      "anonymous": false,
      "inputs": [
        {
          "indexed": false,
          "name": "idMarketplace",
          "type": "bytes32"
        },
        {
          "indexed": false,
          "name": "balance",
          "type": "uint256"
        }
      ],
      "name": "LogCredit",
      "type": "event"
    },
    {
      "anonymous": false,
      "inputs": [
        {
          "indexed": false,
          "name": "productId",
          "type": "bytes32"
        },
        {
          "indexed": false,
          "name": "idMarketplace",
          "type": "bytes32"
        },
        {
          "indexed": false,
          "name": "price",
          "type": "uint256"
        },
        {
          "indexed": false,
          "name": "quantity",
          "type": "uint256"
        },
        {
          "indexed": false,
          "name": "amount",
          "type": "uint256"
        },
        {
          "indexed": false,
          "name": "customer",
          "type": "address"
        },
        {
          "indexed": false,
          "name": "updatetStock",
          "type": "uint256"
        }
      ],
      "name": "LogSold",
      "type": "event"
    },
    {
      "anonymous": false,
      "inputs": [
        {
          "indexed": false,
          "name": "account",
          "type": "address"
        }
      ],
      "name": "Paused",
      "type": "event"
    },
    {
      "anonymous": false,
      "inputs": [
        {
          "indexed": false,
          "name": "account",
          "type": "address"
        }
      ],
      "name": "Unpaused",
      "type": "event"
    },
    {
      "anonymous": false,
      "inputs": [
        {
          "indexed": true,
          "name": "account",
          "type": "address"
        }
      ],
      "name": "PauserAdded",
      "type": "event"
    },
    {
      "anonymous": false,
      "inputs": [
        {
          "indexed": true,
          "name": "account",
          "type": "address"
        }
      ],
      "name": "PauserRemoved",
      "type": "event"
    },
    {
      "anonymous": false,
      "inputs": [
        {
          "indexed": true,
          "name": "previousOwner",
          "type": "address"
        },
        {
          "indexed": true,
          "name": "newOwner",
          "type": "address"
        }
      ],
      "name": "OwnershipTransferred",
      "type": "event"
    },
    {
      "constant": false,
      "inputs": [
        {
          "name": "marketName",
          "type": "string"
        }
      ],
      "name": "addMarket",
      "outputs": [
        {
          "name": "",
          "type": "bytes32"
        }
      ],
      "payable": false,
      "stateMutability": "nonpayable",
      "type": "function"
    },
    {
      "constant": true,
      "inputs": [
        {
          "name": "marketOwner",
          "type": "address"
        },
        {
          "name": "index",
          "type": "uint256"
        }
      ],
      "name": "getIdGivenOwner",
      "outputs": [
        {
          "name": "",
          "type": "bytes32"
        }
      ],
      "payable": false,
      "stateMutability": "view",
      "type": "function"
    },
    {
      "constant": true,
      "inputs": [
        {
          "name": "marketOwner",
          "type": "address"
        }
      ],
      "name": "getNumberGivenOwner",
      "outputs": [
        {
          "name": "",
          "type": "uint256"
        }
      ],
      "payable": false,
      "stateMutability": "view",
      "type": "function"
    },
    {
      "constant": false,
      "inputs": [
        {
          "name": "idMarketplace",
          "type": "bytes32"
        }
      ],
      "name": "deleteMarketplace",
      "outputs": [],
      "payable": false,
      "stateMutability": "nonpayable",
      "type": "function"
    },
    {
      "constant": true,
      "inputs": [
        {
          "name": "idMarketplace",
          "type": "bytes32"
        }
      ],
      "name": "getOwnerGivenMarketplaceId",
      "outputs": [
        {
          "name": "",
          "type": "address"
        }
      ],
      "payable": false,
      "stateMutability": "view",
      "type": "function"
    },
    {
      "constant": true,
      "inputs": [
        {
          "name": "idMarketplace",
          "type": "bytes32"
        }
      ],
      "name": "getMarketplaceName",
      "outputs": [
        {
          "name": "",
          "type": "string"
        }
      ],
      "payable": false,
      "stateMutability": "view",
      "type": "function"
    },
    {
      "constant": true,
      "inputs": [],
      "name": "getMarketNumber",
      "outputs": [
        {
          "name": "",
          "type": "uint256"
        }
      ],
      "payable": false,
      "stateMutability": "view",
      "type": "function"
    },
    {
      "constant": false,
      "inputs": [
        {
          "name": "idMarketplace",
          "type": "bytes32"
        },
        {
          "name": "productName",
          "type": "string"
        },
        {
          "name": "description",
          "type": "string"
        },
        {
          "name": "price",
          "type": "uint256"
        },
        {
          "name": "stock",
          "type": "uint256"
        }
      ],
      "name": "addProductToMarket",
      "outputs": [
        {
          "name": "",
          "type": "bytes32"
        }
      ],
      "payable": false,
      "stateMutability": "nonpayable",
      "type": "function"
    },
    {
      "constant": true,
      "inputs": [
        {
          "name": "idMarketplace",
          "type": "bytes32"
        }
      ],
      "name": "getProductOfMarketplace",
      "outputs": [
        {
          "name": "",
          "type": "bytes32[]"
        }
      ],
      "payable": false,
      "stateMutability": "view",
      "type": "function"
    },
    {
      "constant": true,
      "inputs": [
        {
          "name": "idMarketplace",
          "type": "bytes32"
        },
        {
          "name": "index",
          "type": "uint256"
        }
      ],
      "name": "getProductOfMarket",
      "outputs": [
        {
          "name": "",
          "type": "bytes32"
        }
      ],
      "payable": false,
      "stateMutability": "view",
      "type": "function"
    },
    {
      "constant": true,
      "inputs": [
        {
          "name": "idMarketplace",
          "type": "bytes32"
        }
      ],
      "name": "getProductNumberGivenMarketId",
      "outputs": [
        {
          "name": "",
          "type": "uint256"
        }
      ],
      "payable": false,
      "stateMutability": "view",
      "type": "function"
    },
    {
      "constant": true,
      "inputs": [
        {
          "name": "productId",
          "type": "bytes32"
        }
      ],
      "name": "getProductData",
      "outputs": [
        {
          "name": "",
          "type": "string"
        },
        {
          "name": "",
          "type": "string"
        },
        {
          "name": "",
          "type": "uint256"
        },
        {
          "name": "",
          "type": "uint256"
        },
        {
          "name": "",
          "type": "bytes32"
        }
      ],
      "payable": false,
      "stateMutability": "view",
      "type": "function"
    },
    {
      "constant": false,
      "inputs": [
        {
          "name": "idMarketplace",
          "type": "bytes32"
        }
      ],
      "name": "deleteAllProducts",
      "outputs": [],
      "payable": false,
      "stateMutability": "nonpayable",
      "type": "function"
    },
    {
      "constant": false,
      "inputs": [
        {
          "name": "idMarketplace",
          "type": "bytes32"
        },
        {
          "name": "productId",
          "type": "bytes32"
        }
      ],
      "name": "deleteProductGivenMarketId",
      "outputs": [],
      "payable": false,
      "stateMutability": "nonpayable",
      "type": "function"
    },
    {
      "constant": false,
      "inputs": [
        {
          "name": "idMarketplace",
          "type": "bytes32"
        },
        {
          "name": "productId",
          "type": "bytes32"
        },
        {
          "name": "stock",
          "type": "uint256"
        }
      ],
      "name": "buy",
      "outputs": [
        {
          "name": "",
          "type": "bool"
        }
      ],
      "payable": true,
      "stateMutability": "payable",
      "type": "function"
    }
  ],
  "bytecode": "0x60806040523480156200001157600080fd5b5060405162003c5038038062003c50833981810160405260208110156200003757600080fd5b8101908080519060200190929190505050336000806101000a81548173ffffffffffffffffffffffffffffffffffffffff021916908373ffffffffffffffffffffffffffffffffffffffff1602179055506000809054906101000a900473ffffffffffffffffffffffffffffffffffffffff1673ffffffffffffffffffffffffffffffffffffffff16600073ffffffffffffffffffffffffffffffffffffffff167f8be0079c531659141344cd1fd0a4f28419497f9722a3daafe3b4186f6b6457e060405160405180910390a362000115336200017860201b60201c565b6000600260006101000a81548160ff02191690831515021790555080600260016101000a81548173ffffffffffffffffffffffffffffffffffffffff021916908373ffffffffffffffffffffffffffffffffffffffff160217905550506200039d565b62000193816001620001d960201b620034d01790919060201c565b8073ffffffffffffffffffffffffffffffffffffffff167f6719d08c1888103bea251a4ed56406bd0c3e69723c8a1686e017e7bbe159b6f860405160405180910390a250565b620001eb8282620002bd60201b60201c565b156200025f576040517f08c379a000000000000000000000000000000000000000000000000000000000815260040180806020018281038252601f8152602001807f526f6c65733a206163636f756e7420616c72656164792068617320726f6c650081525060200191505060405180910390fd5b60018260000160008373ffffffffffffffffffffffffffffffffffffffff1673ffffffffffffffffffffffffffffffffffffffff16815260200190815260200160002060006101000a81548160ff0219169083151502179055505050565b60008073ffffffffffffffffffffffffffffffffffffffff168273ffffffffffffffffffffffffffffffffffffffff16141562000346576040517f08c379a000000000000000000000000000000000000000000000000000000000815260040180806020018281038252602281526020018062003c2e6022913960400191505060405180910390fd5b8260000160008373ffffffffffffffffffffffffffffffffffffffff1673ffffffffffffffffffffffffffffffffffffffff16815260200190815260200160002060009054906101000a900460ff16905092915050565b61388180620003ad6000396000f3fe6080604052600436106101815760003560e01c80637b0db2f3116100d157806397f8fc391161008a578063bdaabb7e11610064578063bdaabb7e146109d5578063ed0cf4ef14610a65578063eff4a8f814610b9a578063f2fde38b14610bc557610181565b806397f8fc39146107c45780639afa8ed9146107ff578063af2ac6871461099057610181565b80637b0db2f3146106305780637ca4b6b71461067f57806382dc1ec4146106d65780638456cb59146107275780638da5cb5b1461073e5780638f32d59b1461079557610181565b80635c975abb1161013e5780636ef8d66d116101185780636ef8d66d1461056d578063715018a6146105845780637558ed581461059b578063794debfc146105f557610181565b80635c975abb14610454578063630b4c001461048357806364b6859f146104fe57610181565b806315a67f7914610186578063321b5d03146101df5780633cedb1cf146102445780633f4ba83a146102f857806342fe66951461030f57806346fbf68e146103eb575b600080fd5b34801561019257600080fd5b506101c9600480360360408110156101a957600080fd5b810190808035906020019092919080359060200190929190505050610c16565b6040518082815260200191505060405180910390f35b3480156101eb57600080fd5b5061022e6004803603602081101561020257600080fd5b81019080803573ffffffffffffffffffffffffffffffffffffffff169060200190929190505050610c49565b6040518082815260200191505060405180910390f35b34801561025057600080fd5b5061027d6004803603602081101561026757600080fd5b8101908080359060200190929190505050610c95565b6040518080602001828103825283818151815260200191508051906020019080838360005b838110156102bd5780820151818401526020810190506102a2565b50505050905090810190601f1680156102ea5780820380516001836020036101000a031916815260200191505b509250505060405180910390f35b34801561030457600080fd5b5061030d610d4d565b005b34801561031b57600080fd5b506103d56004803603602081101561033257600080fd5b810190808035906020019064010000000081111561034f57600080fd5b82018360208201111561036157600080fd5b8035906020019184600183028401116401000000008311171561038357600080fd5b91908080601f016020809104026020016040519081016040528093929190818152602001838380828437600081840152601f19601f820116905080830192505050505050509192919290505050610ead565b6040518082815260200191505060405180910390f35b3480156103f757600080fd5b5061043a6004803603602081101561040e57600080fd5b81019080803573ffffffffffffffffffffffffffffffffffffffff169060200190929190505050611315565b604051808215151515815260200191505060405180910390f35b34801561046057600080fd5b50610469611332565b604051808215151515815260200191505060405180910390f35b34801561048f57600080fd5b506104bc600480360360208110156104a657600080fd5b8101908080359060200190929190505050611349565b604051808273ffffffffffffffffffffffffffffffffffffffff1673ffffffffffffffffffffffffffffffffffffffff16815260200191505060405180910390f35b34801561050a57600080fd5b506105576004803603604081101561052157600080fd5b81019080803573ffffffffffffffffffffffffffffffffffffffff16906020019092919080359060200190929190505050611389565b6040518082815260200191505060405180910390f35b34801561057957600080fd5b506105826113e8565b005b34801561059057600080fd5b506105996113f3565b005b6105db600480360360608110156105b157600080fd5b8101908080359060200190929190803590602001909291908035906020019092919050505061152c565b604051808215151515815260200191505060405180910390f35b34801561060157600080fd5b5061062e6004803603602081101561061857600080fd5b81019080803590602001909291905050506118bc565b005b34801561063c57600080fd5b506106696004803603602081101561065357600080fd5b8101908080359060200190929190505050611f7a565b6040518082815260200191505060405180910390f35b34801561068b57600080fd5b50610694611f9a565b604051808273ffffffffffffffffffffffffffffffffffffffff1673ffffffffffffffffffffffffffffffffffffffff16815260200191505060405180910390f35b3480156106e257600080fd5b50610725600480360360208110156106f957600080fd5b81019080803573ffffffffffffffffffffffffffffffffffffffff169060200190929190505050611fc0565b005b34801561073357600080fd5b5061073c61202a565b005b34801561074a57600080fd5b5061075361218b565b604051808273ffffffffffffffffffffffffffffffffffffffff1673ffffffffffffffffffffffffffffffffffffffff16815260200191505060405180910390f35b3480156107a157600080fd5b506107aa6121b4565b604051808215151515815260200191505060405180910390f35b3480156107d057600080fd5b506107fd600480360360208110156107e757600080fd5b810190808035906020019092919050505061220b565b005b34801561080b57600080fd5b5061097a600480360360a081101561082257600080fd5b81019080803590602001909291908035906020019064010000000081111561084957600080fd5b82018360208201111561085b57600080fd5b8035906020019184600183028401116401000000008311171561087d57600080fd5b91908080601f016020809104026020016040519081016040528093929190818152602001838380828437600081840152601f19601f820116905080830192505050505050509192919290803590602001906401000000008111156108e057600080fd5b8201836020820111156108f257600080fd5b8035906020019184600183028401116401000000008311171561091457600080fd5b91908080601f016020809104026020016040519081016040528093929190818152602001838380828437600081840152601f19601f820116905080830192505050505050509192919290803590602001909291908035906020019092919050505061259f565b6040518082815260200191505060405180910390f35b34801561099c57600080fd5b506109d3600480360360408110156109b357600080fd5b810190808035906020019092919080359060200190929190505050612a14565b005b3480156109e157600080fd5b50610a0e600480360360208110156109f857600080fd5b8101908080359060200190929190505050612e7b565b6040518080602001828103825283818151815260200191508051906020019060200280838360005b83811015610a51578082015181840152602081019050610a36565b505050509050019250505060405180910390f35b348015610a7157600080fd5b50610a9e60048036036020811015610a8857600080fd5b8101908080359060200190929190505050612ee6565b604051808060200180602001868152602001858152602001848152602001838103835288818151815260200191508051906020019080838360005b83811015610af4578082015181840152602081019050610ad9565b50505050905090810190601f168015610b215780820380516001836020036101000a031916815260200191505b50838103825287818151815260200191508051906020019080838360005b83811015610b5a578082015181840152602081019050610b3f565b50505050905090810190601f168015610b875780820380516001836020036101000a031916815260200191505b5097505050505050505060405180910390f35b348015610ba657600080fd5b50610baf6130aa565b6040518082815260200191505060405180910390f35b348015610bd157600080fd5b50610c1460048036036020811015610be857600080fd5b81019080803573ffffffffffffffffffffffffffffffffffffffff1690602001909291905050506130b7565b005b6000600860008481526020019081526020016000208281548110610c3657fe5b9060005260206000200154905092915050565b6000600660008373ffffffffffffffffffffffffffffffffffffffff1673ffffffffffffffffffffffffffffffffffffffff168152602001908152602001600020805490509050919050565b6060600560008381526020019081526020016000206001018054600181600116156101000203166002900480601f016020809104026020016040519081016040528092919081815260200182805460018160011615610100020316600290048015610d415780601f10610d1657610100808354040283529160200191610d41565b820191906000526020600020905b815481529060010190602001808311610d2457829003601f168201915b50505050509050919050565b610d5633611315565b610dab576040517f08c379a00000000000000000000000000000000000000000000000000000000081526004018080602001828103825260308152602001806137b46030913960400191505060405180910390fd5b600260009054906101000a900460ff16610e2d576040517f08c379a00000000000000000000000000000000000000000000000000000000081526004018080602001828103825260148152602001807f5061757361626c653a206e6f742070617573656400000000000000000000000081525060200191505060405180910390fd5b6000600260006101000a81548160ff0219169083151502179055507f5db9ee0a495bf2e6ff9c91a7834c1ba4fdd244a5e8aa4e537bd38aeae4b073aa33604051808273ffffffffffffffffffffffffffffffffffffffff1673ffffffffffffffffffffffffffffffffffffffff16815260200191505060405180910390a1565b600060011515600260019054906101000a900473ffffffffffffffffffffffffffffffffffffffff1673ffffffffffffffffffffffffffffffffffffffff1663bd34639f336040518263ffffffff1660e01b8152600401808273ffffffffffffffffffffffffffffffffffffffff1673ffffffffffffffffffffffffffffffffffffffff16815260200191505060206040518083038186803b158015610f5257600080fd5b505afa158015610f66573d6000803e3d6000fd5b505050506040513d6020811015610f7c57600080fd5b8101908080519060200190929190505050151514611002576040517f08c379a00000000000000000000000000000000000000000000000000000000081526004018080602001828103825260058152602001807f4572726f7200000000000000000000000000000000000000000000000000000081525060200191505060405180910390fd5b600260009054906101000a900460ff1615611085576040517f08c379a00000000000000000000000000000000000000000000000000000000081526004018080602001828103825260108152602001807f5061757361626c653a207061757365640000000000000000000000000000000081525060200191505060405180910390fd5b6000338342604051602001808473ffffffffffffffffffffffffffffffffffffffff1673ffffffffffffffffffffffffffffffffffffffff1660601b815260140183805190602001908083835b602083106110f557805182526020820191506020810190506020830392506110d2565b6001836020036101000a03801982511681845116808217855250505050505090500182815260200193505050506040516020818303038152906040528051906020012090506111426135ab565b60405180608001604052808381526020018581526020013373ffffffffffffffffffffffffffffffffffffffff1681526020016000815250905080600560008481526020019081526020016000206000820151816000015560208201518160010190805190602001906111b69291906135ec565b5060408201518160020160006101000a81548173ffffffffffffffffffffffffffffffffffffffff021916908373ffffffffffffffffffffffffffffffffffffffff16021790555060608201518160030155905050600660003373ffffffffffffffffffffffffffffffffffffffff1673ffffffffffffffffffffffffffffffffffffffff168152602001908152602001600020816000015190806001815401808255809150509060018203906000526020600020016000909192909190915055506003816000015190806001815401808255809150509060018203906000526020600020016000909192909190915055506001600380549050036004600083600001518152602001908152602001600020819055507f789b6e9537af44db9b7f8507a4a0cc1a3e0977f5786b7e29af53799cb4952a1381600001516040518082815260200191505060405180910390a1806000015192505050919050565b600061132b82600161313d90919063ffffffff16565b9050919050565b6000600260009054906101000a900460ff16905090565b60006005600083815260200190815260200160002060020160009054906101000a900473ffffffffffffffffffffffffffffffffffffffff169050919050565b6000600660008473ffffffffffffffffffffffffffffffffffffffff1673ffffffffffffffffffffffffffffffffffffffff16815260200190815260200160002082815481106113d557fe5b9060005260206000200154905092915050565b6113f13361321b565b565b6113fb6121b4565b61146d576040517f08c379a00000000000000000000000000000000000000000000000000000000081526004018080602001828103825260208152602001807f4f776e61626c653a2063616c6c6572206973206e6f7420746865206f776e657281525060200191505060405180910390fd5b600073ffffffffffffffffffffffffffffffffffffffff166000809054906101000a900473ffffffffffffffffffffffffffffffffffffffff1673ffffffffffffffffffffffffffffffffffffffff167f8be0079c531659141344cd1fd0a4f28419497f9722a3daafe3b4186f6b6457e060405160405180910390a360008060006101000a81548173ffffffffffffffffffffffffffffffffffffffff021916908373ffffffffffffffffffffffffffffffffffffffff160217905550565b6000600260009054906101000a900460ff16156115b1576040517f08c379a00000000000000000000000000000000000000000000000000000000081526004018080602001828103825260108152602001807f5061757361626c653a207061757365640000000000000000000000000000000081525060200191505060405180910390fd5b600060076000858152602001908152602001600020905060006005600087815260200190815260200160002090503373ffffffffffffffffffffffffffffffffffffffff168160020160009054906101000a900473ffffffffffffffffffffffffffffffffffffffff1673ffffffffffffffffffffffffffffffffffffffff1614156116a5576040517f08c379a00000000000000000000000000000000000000000000000000000000081526004018080602001828103825260058152602001807f4572726f7200000000000000000000000000000000000000000000000000000081525060200191505060405180910390fd5b600084836003015402905080341015611726576040517f08c379a00000000000000000000000000000000000000000000000000000000081526004018080602001828103825260058152602001807f4572726f7200000000000000000000000000000000000000000000000000000081525060200191505060405180910390fd5b82600401548511156117a0576040517f08c379a00000000000000000000000000000000000000000000000000000000081526004018080602001828103825260058152602001807f4572726f7200000000000000000000000000000000000000000000000000000081525060200191505060405180910390fd5b600081340390503373ffffffffffffffffffffffffffffffffffffffff166108fc829081150290604051600060405180830381858888f193505050501580156117ed573d6000803e3d6000fd5b508584600401600082825403925050819055508183600301600082825401925050819055507f94d2ecdb08ef61b875139d2d11d3aefbed429e9c40eef63b3c14bb0f3c117edb878986600301548986338a60040154604051808881526020018781526020018681526020018581526020018481526020018373ffffffffffffffffffffffffffffffffffffffff1673ffffffffffffffffffffffffffffffffffffffff16815260200182815260200197505050505050505060405180910390a160019450505050509392505050565b60011515600260019054906101000a900473ffffffffffffffffffffffffffffffffffffffff1673ffffffffffffffffffffffffffffffffffffffff1663bd34639f336040518263ffffffff1660e01b8152600401808273ffffffffffffffffffffffffffffffffffffffff1673ffffffffffffffffffffffffffffffffffffffff16815260200191505060206040518083038186803b15801561195f57600080fd5b505afa158015611973573d6000803e3d6000fd5b505050506040513d602081101561198957600080fd5b8101908080519060200190929190505050151514611a0f576040517f08c379a00000000000000000000000000000000000000000000000000000000081526004018080602001828103825260058152602001807f4572726f7200000000000000000000000000000000000000000000000000000081525060200191505060405180910390fd5b803373ffffffffffffffffffffffffffffffffffffffff166005600083815260200190815260200160002060020160009054906101000a900473ffffffffffffffffffffffffffffffffffffffff1673ffffffffffffffffffffffffffffffffffffffff1614611ae7576040517f08c379a00000000000000000000000000000000000000000000000000000000081526004018080602001828103825260058152602001807f4572726f7200000000000000000000000000000000000000000000000000000081525060200191505060405180910390fd5b600260009054906101000a900460ff1615611b6a576040517f08c379a00000000000000000000000000000000000000000000000000000000081526004018080602001828103825260108152602001807f5061757361626c653a207061757365640000000000000000000000000000000081525060200191505060405180910390fd5b611b738261220b565b60006004600084815260200190815260200160002054905060016003805490501115611bd557600360016003805490500381548110611bae57fe5b906000526020600020015460038281548110611bc657fe5b90600052602060002001819055505b6003805480919060019003611bea919061366c565b506000600660003373ffffffffffffffffffffffffffffffffffffffff1673ffffffffffffffffffffffffffffffffffffffff16815260200190815260200160002080549050905060008090505b81811015611e175784600660003373ffffffffffffffffffffffffffffffffffffffff1673ffffffffffffffffffffffffffffffffffffffff1681526020019081526020016000208281548110611c8b57fe5b90600052602060002001541415611e0a57600182038114611d5757600660003373ffffffffffffffffffffffffffffffffffffffff1673ffffffffffffffffffffffffffffffffffffffff1681526020019081526020016000206001830381548110611cf357fe5b9060005260206000200154600660003373ffffffffffffffffffffffffffffffffffffffff1673ffffffffffffffffffffffffffffffffffffffff1681526020019081526020016000208281548110611d4857fe5b90600052602060002001819055505b600660003373ffffffffffffffffffffffffffffffffffffffff1673ffffffffffffffffffffffffffffffffffffffff1681526020019081526020016000206001830381548110611da457fe5b9060005260206000200160009055600660003373ffffffffffffffffffffffffffffffffffffffff1673ffffffffffffffffffffffffffffffffffffffff168152602001908152602001600020805480919060019003611e04919061366c565b50611e17565b8080600101915050611c38565b506000600560008681526020019081526020016000206003015490506000811115611edf573373ffffffffffffffffffffffffffffffffffffffff166108fc829081150290604051600060405180830381858888f19350505050158015611e82573d6000803e3d6000fd5b50600060056000878152602001908152602001600020600301819055507f4fa39fc9cab66fbe0a2d4e04227e67c024136dd267cf267745218413ed4df4c98582604051808381526020018281526020019250505060405180910390a15b60056000868152602001908152602001600020600080820160009055600182016000611f0b9190613698565b6002820160006101000a81549073ffffffffffffffffffffffffffffffffffffffff0219169055600382016000905550507fcea2bf3ad2e3da2fb92a8ecb7421687384e435b5c9eec4b299c0aeff1fa5584d856040518082815260200191505060405180910390a15050505050565b600060086000838152602001908152602001600020805490509050919050565b600260019054906101000a900473ffffffffffffffffffffffffffffffffffffffff1681565b611fc933611315565b61201e576040517f08c379a00000000000000000000000000000000000000000000000000000000081526004018080602001828103825260308152602001806137b46030913960400191505060405180910390fd5b61202781613275565b50565b61203333611315565b612088576040517f08c379a00000000000000000000000000000000000000000000000000000000081526004018080602001828103825260308152602001806137b46030913960400191505060405180910390fd5b600260009054906101000a900460ff161561210b576040517f08c379a00000000000000000000000000000000000000000000000000000000081526004018080602001828103825260108152602001807f5061757361626c653a207061757365640000000000000000000000000000000081525060200191505060405180910390fd5b6001600260006101000a81548160ff0219169083151502179055507f62e78cea01bee320cd4e420270b5ea74000d11b0c9f74754ebdbfc544b05a25833604051808273ffffffffffffffffffffffffffffffffffffffff1673ffffffffffffffffffffffffffffffffffffffff16815260200191505060405180910390a1565b60008060009054906101000a900473ffffffffffffffffffffffffffffffffffffffff16905090565b60008060009054906101000a900473ffffffffffffffffffffffffffffffffffffffff1673ffffffffffffffffffffffffffffffffffffffff163373ffffffffffffffffffffffffffffffffffffffff1614905090565b60011515600260019054906101000a900473ffffffffffffffffffffffffffffffffffffffff1673ffffffffffffffffffffffffffffffffffffffff1663bd34639f336040518263ffffffff1660e01b8152600401808273ffffffffffffffffffffffffffffffffffffffff1673ffffffffffffffffffffffffffffffffffffffff16815260200191505060206040518083038186803b1580156122ae57600080fd5b505afa1580156122c2573d6000803e3d6000fd5b505050506040513d60208110156122d857600080fd5b810190808051906020019092919050505015151461235e576040517f08c379a00000000000000000000000000000000000000000000000000000000081526004018080602001828103825260058152602001807f4572726f7200000000000000000000000000000000000000000000000000000081525060200191505060405180910390fd5b803373ffffffffffffffffffffffffffffffffffffffff166005600083815260200190815260200160002060020160009054906101000a900473ffffffffffffffffffffffffffffffffffffffff1673ffffffffffffffffffffffffffffffffffffffff1614612436576040517f08c379a00000000000000000000000000000000000000000000000000000000081526004018080602001828103825260058152602001807f4572726f7200000000000000000000000000000000000000000000000000000081525060200191505060405180910390fd5b600260009054906101000a900460ff16156124b9576040517f08c379a00000000000000000000000000000000000000000000000000000000081526004018080602001828103825260108152602001807f5061757361626c653a207061757365640000000000000000000000000000000081525060200191505060405180910390fd5b60008090505b600860008481526020019081526020016000208054905081101561259a5760006008600085815260200190815260200160002082815481106124fd57fe5b9060005260206000200154905060086000858152602001908152602001600020828154811061252857fe5b9060005260206000200160009055600760008281526020019081526020016000206000808201600090556001820160006125629190613698565b6002820160006125729190613698565b60038201600090556004820160009055600582016000905550505080806001019150506124bf565b505050565b600060011515600260019054906101000a900473ffffffffffffffffffffffffffffffffffffffff1673ffffffffffffffffffffffffffffffffffffffff1663bd34639f336040518263ffffffff1660e01b8152600401808273ffffffffffffffffffffffffffffffffffffffff1673ffffffffffffffffffffffffffffffffffffffff16815260200191505060206040518083038186803b15801561264457600080fd5b505afa158015612658573d6000803e3d6000fd5b505050506040513d602081101561266e57600080fd5b81019080805190602001909291905050501515146126f4576040517f08c379a00000000000000000000000000000000000000000000000000000000081526004018080602001828103825260058152602001807f4572726f7200000000000000000000000000000000000000000000000000000081525060200191505060405180910390fd5b853373ffffffffffffffffffffffffffffffffffffffff166005600083815260200190815260200160002060020160009054906101000a900473ffffffffffffffffffffffffffffffffffffffff1673ffffffffffffffffffffffffffffffffffffffff16146127cc576040517f08c379a00000000000000000000000000000000000000000000000000000000081526004018080602001828103825260058152602001807f4572726f7200000000000000000000000000000000000000000000000000000081525060200191505060405180910390fd5b600260009054906101000a900460ff161561284f576040517f08c379a00000000000000000000000000000000000000000000000000000000081526004018080602001828103825260108152602001807f5061757361626c653a207061757365640000000000000000000000000000000081525060200191505060405180910390fd5b60008787426040516020018084815260200183805190602001908083835b60208310612890578051825260208201915060208101905060208303925061286d565b6001836020036101000a03801982511681845116808217855250505050505090500182815260200193505050506040516020818303038152906040528051906020012090506128dd6136e0565b6040518060c001604052808381526020018981526020018881526020018781526020018681526020018a815250905080600760008481526020019081526020016000206000820151816000015560208201518160010190805190602001906129469291906135ec565b5060408201518160020190805190602001906129639291906135ec565b50606082015181600301556080820151816004015560a08201518160050155905050600860008a8152602001908152602001600020816000015190806001815401808255809150509060018203906000526020600020016000909192909190915055507f5e161ba023eea8f52ebb7ae733326063860324c9959331d6a4d30ef9912d4b0581600001516040518082815260200191505060405180910390a18060000151935050505095945050505050565b60011515600260019054906101000a900473ffffffffffffffffffffffffffffffffffffffff1673ffffffffffffffffffffffffffffffffffffffff1663bd34639f336040518263ffffffff1660e01b8152600401808273ffffffffffffffffffffffffffffffffffffffff1673ffffffffffffffffffffffffffffffffffffffff16815260200191505060206040518083038186803b158015612ab757600080fd5b505afa158015612acb573d6000803e3d6000fd5b505050506040513d6020811015612ae157600080fd5b8101908080519060200190929190505050151514612b67576040517f08c379a00000000000000000000000000000000000000000000000000000000081526004018080602001828103825260058152602001807f4572726f7200000000000000000000000000000000000000000000000000000081525060200191505060405180910390fd5b813373ffffffffffffffffffffffffffffffffffffffff166005600083815260200190815260200160002060020160009054906101000a900473ffffffffffffffffffffffffffffffffffffffff1673ffffffffffffffffffffffffffffffffffffffff1614612c3f576040517f08c379a00000000000000000000000000000000000000000000000000000000081526004018080602001828103825260058152602001807f4572726f7200000000000000000000000000000000000000000000000000000081525060200191505060405180910390fd5b600260009054906101000a900460ff1615612cc2576040517f08c379a00000000000000000000000000000000000000000000000000000000081526004018080602001828103825260108152602001807f5061757361626c653a207061757365640000000000000000000000000000000081525060200191505060405180910390fd5b606060086000858152602001908152602001600020805480602002602001604051908101604052809291908181526020018280548015612d2157602002820191906000526020600020905b815481526020019060010190808311612d0d575b5050505050905060008151905060008090505b81811015612e735784838281518110612d4957fe5b60200260200101511415612e6657826001830381518110612d6657fe5b6020026020010151838281518110612d7a57fe5b602002602001018181525050826001830381518110612d9557fe5b60200260200101600080191681525082600860008881526020019081526020016000209080519060200190612dcb92919061371c565b5060076000868152602001908152602001600020600080820160009055600182016000612df89190613698565b600282016000612e089190613698565b60038201600090556004820160009055600582016000905550507fd835e845a175ef69f312ffaa45f78523ed1cd8735d819f9a5d3051d4848026448587604051808381526020018281526020019250505060405180910390a1612e73565b8080600101915050612d34565b505050505050565b606060086000838152602001908152602001600020805480602002602001604051908101604052809291908181526020018280548015612eda57602002820191906000526020600020905b815481526020019060010190808311612ec6575b50505050509050919050565b606080600080600060076000878152602001908152602001600020600101600760008881526020019081526020016000206002016007600089815260200190815260200160002060030154600760008a815260200190815260200160002060040154600760008b815260200190815260200160002060050154848054600181600116156101000203166002900480601f016020809104026020016040519081016040528092919081815260200182805460018160011615610100020316600290048015612ff45780601f10612fc957610100808354040283529160200191612ff4565b820191906000526020600020905b815481529060010190602001808311612fd757829003601f168201915b50505050509450838054600181600116156101000203166002900480601f0160208091040260200160405190810160405280929190818152602001828054600181600116156101000203166002900480156130905780601f1061306557610100808354040283529160200191613090565b820191906000526020600020905b81548152906001019060200180831161307357829003601f168201915b505050505093509450945094509450945091939590929450565b6000600380549050905090565b6130bf6121b4565b613131576040517f08c379a00000000000000000000000000000000000000000000000000000000081526004018080602001828103825260208152602001807f4f776e61626c653a2063616c6c6572206973206e6f7420746865206f776e657281525060200191505060405180910390fd5b61313a816132cf565b50565b60008073ffffffffffffffffffffffffffffffffffffffff168273ffffffffffffffffffffffffffffffffffffffff1614156131c4576040517f08c379a000000000000000000000000000000000000000000000000000000000815260040180806020018281038252602281526020018061382b6022913960400191505060405180910390fd5b8260000160008373ffffffffffffffffffffffffffffffffffffffff1673ffffffffffffffffffffffffffffffffffffffff16815260200190815260200160002060009054906101000a900460ff16905092915050565b61322f81600161341390919063ffffffff16565b8073ffffffffffffffffffffffffffffffffffffffff167fcd265ebaf09df2871cc7bd4133404a235ba12eff2041bb89d9c714a2621c7c7e60405160405180910390a250565b6132898160016134d090919063ffffffff16565b8073ffffffffffffffffffffffffffffffffffffffff167f6719d08c1888103bea251a4ed56406bd0c3e69723c8a1686e017e7bbe159b6f860405160405180910390a250565b600073ffffffffffffffffffffffffffffffffffffffff168173ffffffffffffffffffffffffffffffffffffffff161415613355576040517f08c379a00000000000000000000000000000000000000000000000000000000081526004018080602001828103825260268152602001806137e46026913960400191505060405180910390fd5b8073ffffffffffffffffffffffffffffffffffffffff166000809054906101000a900473ffffffffffffffffffffffffffffffffffffffff1673ffffffffffffffffffffffffffffffffffffffff167f8be0079c531659141344cd1fd0a4f28419497f9722a3daafe3b4186f6b6457e060405160405180910390a3806000806101000a81548173ffffffffffffffffffffffffffffffffffffffff021916908373ffffffffffffffffffffffffffffffffffffffff16021790555050565b61341d828261313d565b613472576040517f08c379a000000000000000000000000000000000000000000000000000000000815260040180806020018281038252602181526020018061380a6021913960400191505060405180910390fd5b60008260000160008373ffffffffffffffffffffffffffffffffffffffff1673ffffffffffffffffffffffffffffffffffffffff16815260200190815260200160002060006101000a81548160ff0219169083151502179055505050565b6134da828261313d565b1561354d576040517f08c379a000000000000000000000000000000000000000000000000000000000815260040180806020018281038252601f8152602001807f526f6c65733a206163636f756e7420616c72656164792068617320726f6c650081525060200191505060405180910390fd5b60018260000160008373ffffffffffffffffffffffffffffffffffffffff1673ffffffffffffffffffffffffffffffffffffffff16815260200190815260200160002060006101000a81548160ff0219169083151502179055505050565b60405180608001604052806000801916815260200160608152602001600073ffffffffffffffffffffffffffffffffffffffff168152602001600081525090565b828054600181600116156101000203166002900490600052602060002090601f016020900481019282601f1061362d57805160ff191683800117855561365b565b8280016001018555821561365b579182015b8281111561365a57825182559160200191906001019061363f565b5b5090506136689190613769565b5090565b81548183558181111561369357818360005260206000209182019101613692919061378e565b5b505050565b50805460018160011615610100020316600290046000825580601f106136be57506136dd565b601f0160209004906000526020600020908101906136dc9190613769565b5b50565b6040518060c001604052806000801916815260200160608152602001606081526020016000815260200160008152602001600080191681525090565b828054828255906000526020600020908101928215613758579160200282015b8281111561375757825182559160200191906001019061373c565b5b509050613765919061378e565b5090565b61378b91905b8082111561378757600081600090555060010161376f565b5090565b90565b6137b091905b808211156137ac576000816000905550600101613794565b5090565b9056fe506175736572526f6c653a2063616c6c657220646f6573206e6f742068617665207468652050617573657220726f6c654f776e61626c653a206e6577206f776e657220697320746865207a65726f2061646472657373526f6c65733a206163636f756e7420646f6573206e6f74206861766520726f6c65526f6c65733a206163636f756e7420697320746865207a65726f2061646472657373a265627a7a7230582067487800fa80cf9b366274c3d60da8d348f9b5056ce694772a7dfbe630363ec264736f6c634300050a0032526f6c65733a206163636f756e7420697320746865207a65726f2061646472657373",
  "source": "pragma solidity ^0.5.10;\n\nimport './DecentralizedStore.sol';\nimport '../node_modules/openzeppelin-solidity/contracts/ownership/Ownable.sol';\nimport '../node_modules/openzeppelin-solidity/contracts/lifecycle/Pausable.sol';\n\n/*\n* @title Marketplace\n*\n* @dev @notice This contract allows the users to operate different functions based on their roles\n*\n*/\ncontract Marketplace is Ownable, Pausable{\n\n    //DecentralizedStore Instance\n    DecentralizedStore public decentralizedStoreInstance;\n\n\n    /**\n    * @dev Constructor\n\t* @param DecentralizedStoreAddress adress of DecentralizedStore contract\n\t*/\n    constructor(address DecentralizedStoreAddress) public {\n        decentralizedStoreInstance = DecentralizedStore(DecentralizedStoreAddress);\n    }\n\n    /**\n    * @dev Struct\n\t* @param idMarketplace Market Id\n\t* @param marketName Market name\n\t* @param marketOwner address of the market Owner\n\t* @param credit Market credit\n\t*/\n    struct Market {\n        bytes32 idMarketplace;\n        string marketName;\n        address marketOwner;\n        uint credit;\n    }\n\n    /**\n    * @dev Struct\n\t* @param productId Product Id\n\t* @param productName Product name\n\t* @param description description of the Product\n    * @param price price of the Product\n\t* @param stock stock of the product in a market\n    * @param idMarketplace Market Id\n\t*/\n    struct Product {\n        bytes32 productId;\n        string productName;\n        string description;\n        uint price;\n        uint stock;\n        bytes32 idMarketplace;\n    }\n\n    //All markets\n    bytes32[] private  marketList;\n\n    //Map of Markets with an index\n    mapping(bytes32 => uint) private marketMap;\n\n    //Map of markets\n    mapping(bytes32 => Market) private marketIdList;\n\n    // Map of owners\n    mapping(address =>  bytes32[]) private marketOwnerMapping;\n\n    //Map of products\n    mapping(bytes32 => Product) private productMap;\n\n    //Map of procucts by their market\n    mapping(bytes32 => bytes32[]) private productsMarketMap;\n\n    //Events\n    event LogNewMarket(bytes32 idMarketplace);\n    event LogdeleteMarket(bytes32 idMarketplace);\n    event LogProductAdded(bytes32 productId);\n    event LogProductRemoved (bytes32 productId,bytes32 storefrontId);\n    event LogCredit(bytes32 idMarketplace, uint balance);\n    event LogSold(bytes32 productId, bytes32 idMarketplace, uint price, uint quantity, uint amount, address customer, uint updatetStock);\n\n    // Modifier to restrict features usage to owners previously approved\n    modifier onlyApprovedStoreOwner() {\n        require(decentralizedStoreInstance.isOwnerApproved(msg.sender) == true,\"Error\");\n        _;\n    }\n\n    // Modifier to restrict features usage to the owner which create the marketplace\n    modifier ownerRestricted(bytes32 idMarketplace) {\n        require(marketIdList[idMarketplace].marketOwner == msg.sender,\"Error\");\n        _;\n    }\n\n    /**\n    * @dev @notice create new marketplace\n\t* @param marketName Name of the marketplace\n    * @return idMarketplace\n\t*/\n    function addMarket(string memory marketName) public onlyApprovedStoreOwner whenNotPaused returns(bytes32){\n        bytes32 idMarketplace = keccak256(abi.encodePacked(msg.sender, marketName, now));\n        Market memory market = Market(idMarketplace, marketName, msg.sender, 0);\n        marketIdList[idMarketplace] = market;\n        marketOwnerMapping[msg.sender].push(market.idMarketplace);\n        marketList.push(market.idMarketplace);\n        marketMap[market.idMarketplace] = marketList.length-1;\n        emit LogNewMarket(market.idMarketplace);\n        return market.idMarketplace;\n    }\n\n    /**\n    * @dev @notice obtain the id knowning the Owner\n\t* @param marketOwner address of the market owner\n    * @param index Market owner index\n    * @return idMarketplace\n\t*/\n    function getIdGivenOwner(address marketOwner, uint index) public view returns(bytes32) {\n        return marketOwnerMapping[marketOwner][index];\n    }\n\n    /**\n    * @dev @notice return the number of markets an owner have\n\t* @param marketOwner address of the owner\n    * @return number of market\n\t*/\n    function getNumberGivenOwner(address marketOwner) public view returns(uint){\n        return marketOwnerMapping[marketOwner].length;\n    }\n\n    /**\n    * @dev @notice Delete a Marketplace, input id\n\t* @param idMarketplace Id of the market\n\t*/\n    function deleteMarketplace(bytes32 idMarketplace) public onlyApprovedStoreOwner ownerRestricted(idMarketplace) whenNotPaused {\n        deleteAllProducts(idMarketplace);\n        uint index = marketMap[idMarketplace];\n        if (marketList.length > 1) {\n            marketList[index] = marketList[marketList.length-1];\n        }\n        marketList.length--;\n        uint length = marketOwnerMapping[msg.sender].length;\n        for (uint i = 0; i < length; i++) {\n            if(marketOwnerMapping[msg.sender][i] == idMarketplace){\n                if(i!=length-1){\n                    marketOwnerMapping[msg.sender][i] = marketOwnerMapping[msg.sender][length-1];\n                }\n                delete marketOwnerMapping[msg.sender][length-1];\n                marketOwnerMapping[msg.sender].length--;\n                break;\n            }\n        }\n        uint balance = marketIdList[idMarketplace].credit;\n\t\tif (balance > 0) {\n\t\t\tmsg.sender.transfer(balance);\n\t\t\tmarketIdList[idMarketplace].credit = 0;\n\t\t\temit LogCredit(idMarketplace, balance);\n\t\t}\n        delete marketIdList[idMarketplace];\n        emit LogdeleteMarket(idMarketplace);\n    }\n\n    /**\n    * @dev @notice return the owner of a known marketblapce identified by an id\n\t* @param idMarketplace Id of the market\n    * @return marketOwner address\n\t*/\n    function getOwnerGivenMarketplaceId(bytes32 idMarketplace) public view returns(address){\n        return marketIdList[idMarketplace].marketOwner;\n    }\n\n    /**\n    * @dev @notice return the name of a known marketplapce identified by an id\n\t* @param idMarketplace Id of the market\n    * @return marketName\n\t*/\n    function getMarketplaceName(bytes32 idMarketplace) public view returns(string memory){\n        return marketIdList[idMarketplace].marketName;\n    }\n\n    /**\n    * @dev @notice return the number of markets created\n    * @return number\n\t*/\n    function getMarketNumber() public view returns (uint) {\n\t\treturn marketList.length;\n\t}\n\n    /**\n    * @dev @notice create a new product in the marketplace identified by the id\n    * @param idMarketplace Id of the market\n    * @param productName Name of the product\n    * @param description Description of the product\n    * @param price price of the product\n    * @param stock stock of the product\n    * @return productId\n\t*/\n    function addProductToMarket(bytes32 idMarketplace, string memory productName, string memory description, uint price, uint stock)\n    public onlyApprovedStoreOwner ownerRestricted(idMarketplace) whenNotPaused returns(bytes32){\n        bytes32 productId = keccak256(abi.encodePacked(idMarketplace, productName, now));\n        Product memory product = Product(productId, productName, description, price, stock, idMarketplace);\n        productMap[productId] = product;\n        productsMarketMap[idMarketplace].push(product.productId);\n        emit LogProductAdded(product.productId);\n        return product.productId;\n    }\n\n    /**\n    * @dev @notice return the products in a marketplace\n    * @param idMarketplace Id of the market\n    * @return list of id\n\t*/\n    function getProductOfMarketplace(bytes32 idMarketplace) public view returns(bytes32[] memory){\n        return productsMarketMap[idMarketplace];\n    }\n\n    /**\n    * @dev @notice return the id of the products of a marketplace\n    * @param idMarketplace Id of the market\n    * @param index product in a market\n    * @return productid\n\t*/\n    function getProductOfMarket(bytes32 idMarketplace, uint index) public view returns(bytes32){\n        return productsMarketMap[idMarketplace][index];\n    }\n\n    /**\n    * @dev @notice return the numer of products\n    * @param idMarketplace Id\n    * @return number\n\t*/\n    function getProductNumberGivenMarketId(bytes32 idMarketplace) public view returns(uint){\n        return productsMarketMap[idMarketplace].length;\n    }\n\n    /**\n    * @dev @notice return all the informations of a product knowing its id\n    * @param productId id of the product\n    * @return productData\n\t*/\n    function getProductData(bytes32 productId) public view returns (string memory, string memory, uint, uint, bytes32){\n        return (productMap[productId].productName, productMap[productId].description, productMap[productId].price,\n        productMap[productId].stock, productMap[productId].idMarketplace);\n    }\n\n    /**\n    * @dev @notice empty the marketplace\n    * @param idMarketplace Id\n\t*/\n    function deleteAllProducts(bytes32 idMarketplace) public onlyApprovedStoreOwner ownerRestricted(idMarketplace) whenNotPaused{\n        for (uint i = 0; i < productsMarketMap[idMarketplace].length; i++) {\n                bytes32 productId = productsMarketMap[idMarketplace][i];\n                delete productsMarketMap[idMarketplace][i];\n                delete productMap[productId];\n        }\n    }\n\n    /**\n    * @dev @notice delete a product\n    * @param idMarketplace Id of the market\n    * @param productId Id of the Product\n\t*/\n    function deleteProductGivenMarketId(bytes32 idMarketplace, bytes32 productId) public onlyApprovedStoreOwner ownerRestricted(idMarketplace) whenNotPaused{\n        bytes32[] memory productIds = productsMarketMap[idMarketplace];\n\t\tuint productsCount = productIds.length;\n        for(uint i = 0; i < productsCount; i++) {\n\t\t\tif (productIds[i] == productId) {\n\t\t\t\tproductIds[i] = productIds[productsCount-1];\n\t\t\t\tdelete productIds[productsCount-1];\n                productsMarketMap[idMarketplace] = productIds;\n\t\t\t\tdelete productMap[productId];\n\t\t\t\temit LogProductRemoved(productId, idMarketplace);\n\t\t\t\tbreak;\n\t\t\t}\n\t\t}\n    }\n\n    /**\n    * @dev @notice buy a product in a marketplace\n    * @param idMarketplace Id of the market\n    * @param productId Id of the Product\n    * @param stock how much to buy\n    * @return true if success\n\t*/\n    function buy(bytes32 idMarketplace, bytes32 productId, uint stock) public payable whenNotPaused returns(bool){\n        Product storage productBuy = productMap[productId];\n        Market storage market = marketIdList[idMarketplace];\n        require(market.marketOwner != msg.sender,\"Error\");\n        uint amount = productBuy.price*stock;\n        require(msg.value >= amount,\"Error\");\n        require (stock <= productBuy.stock,\"Error\");\n        uint remainingValue = msg.value-amount;\n        msg.sender.transfer(remainingValue);\n        productBuy.stock -= stock;\n        market.credit += amount;\n        emit LogSold(productId, idMarketplace, productBuy.price, stock, amount, msg.sender, productBuy.stock);\n\t\treturn true;\n    }\n\n}",
  "sourcePath": "/home/jack/Desktop/dstore/contracts/Marketplace.sol",
  "compiler": {
    "name": "solc",
    "version": "0.5.10+commit.5a6ea5b1.Emscripten.clang"
  },
  "schemaVersion": "3.0.11",
  "updatedAt": "2019-07-31T14:52:32.861Z",
  "devdoc": {
    "methods": {
      "addMarket(string)": {
        "details": "@notice create new marketplace",
        "params": {
          "marketName": "Name of the marketplace"
        },
        "return": "idMarketplace"
      },
      "addProductToMarket(bytes32,string,string,uint256,uint256)": {
        "details": "@notice create a new product in the marketplace identified by the id",
        "params": {
          "description": "Description of the product",
          "idMarketplace": "Id of the market",
          "price": "price of the product",
          "productName": "Name of the product",
          "stock": "stock of the product"
        },
        "return": "productId"
      },
      "buy(bytes32,bytes32,uint256)": {
        "details": "@notice buy a product in a marketplace",
        "params": {
          "idMarketplace": "Id of the market",
          "productId": "Id of the Product",
          "stock": "how much to buy"
        },
        "return": "true if success"
      },
      "constructor": {
        "details": "Constructor",
        "params": {
          "DecentralizedStoreAddress": "adress of DecentralizedStore contract"
        }
      },
      "deleteAllProducts(bytes32)": {
        "details": "@notice empty the marketplace",
        "params": {
          "idMarketplace": "Id"
        }
      },
      "deleteMarketplace(bytes32)": {
        "details": "@notice Delete a Marketplace, input id",
        "params": {
          "idMarketplace": "Id of the market"
        }
      },
      "deleteProductGivenMarketId(bytes32,bytes32)": {
        "details": "@notice delete a product",
        "params": {
          "idMarketplace": "Id of the market",
          "productId": "Id of the Product"
        }
      },
      "getIdGivenOwner(address,uint256)": {
        "details": "@notice obtain the id knowning the Owner",
        "params": {
          "index": "Market owner index",
          "marketOwner": "address of the market owner"
        },
        "return": "idMarketplace"
      },
      "getMarketNumber()": {
        "details": "@notice return the number of markets created",
        "return": "number"
      },
      "getMarketplaceName(bytes32)": {
        "details": "@notice return the name of a known marketplapce identified by an id",
        "params": {
          "idMarketplace": "Id of the market"
        },
        "return": "marketName"
      },
      "getNumberGivenOwner(address)": {
        "details": "@notice return the number of markets an owner have",
        "params": {
          "marketOwner": "address of the owner"
        },
        "return": "number of market"
      },
      "getOwnerGivenMarketplaceId(bytes32)": {
        "details": "@notice return the owner of a known marketblapce identified by an id",
        "params": {
          "idMarketplace": "Id of the market"
        },
        "return": "marketOwner address"
      },
      "getProductData(bytes32)": {
        "details": "@notice return all the informations of a product knowing its id",
        "params": {
          "productId": "id of the product"
        },
        "return": "productData"
      },
      "getProductNumberGivenMarketId(bytes32)": {
        "details": "@notice return the numer of products",
        "params": {
          "idMarketplace": "Id"
        },
        "return": "number"
      },
      "getProductOfMarket(bytes32,uint256)": {
        "details": "@notice return the id of the products of a marketplace",
        "params": {
          "idMarketplace": "Id of the market",
          "index": "product in a market"
        },
        "return": "productid"
      },
      "getProductOfMarketplace(bytes32)": {
        "details": "@notice return the products in a marketplace",
        "params": {
          "idMarketplace": "Id of the market"
        },
        "return": "list of id"
      },
      "isOwner()": {
        "details": "Returns true if the caller is the current owner."
      },
      "owner()": {
        "details": "Returns the address of the current owner."
      },
      "pause()": {
        "details": "Called by a pauser to pause, triggers stopped state."
      },
      "paused()": {
        "details": "Returns true if the contract is paused, and false otherwise."
      },
      "renounceOwnership()": {
        "details": "Leaves the contract without owner. It will not be possible to call `onlyOwner` functions anymore. Can only be called by the current owner.     * > Note: Renouncing ownership will leave the contract without an owner, thereby removing any functionality that is only available to the owner."
      },
      "transferOwnership(address)": {
        "details": "Transfers ownership of the contract to a new account (`newOwner`). Can only be called by the current owner."
      },
      "unpause()": {
        "details": "Called by a pauser to unpause, returns to normal state."
      }
    }
  },
  "userdoc": {
    "methods": {}
  }
}